{
  "_format": "hh-sol-artifact-1",
  "contractName": "CoinFlip",
  "sourceName": "contracts/CoinFlip.sol",
  "abi": [
    {
      "inputs": [],
      "stateMutability": "nonpayable",
      "type": "constructor"
    },
    {
      "anonymous": false,
      "inputs": [
        {
          "indexed": true,
          "internalType": "address",
          "name": "player",
          "type": "address"
        },
        {
          "indexed": true,
          "internalType": "bool",
          "name": "guess",
          "type": "bool"
        },
        {
          "indexed": false,
          "internalType": "bool",
          "name": "outcome",
          "type": "bool"
        },
        {
          "indexed": false,
          "internalType": "uint256",
          "name": "amount",
          "type": "uint256"
        }
      ],
      "name": "CoinFlipped",
      "type": "event"
    },
    {
      "inputs": [
        {
          "internalType": "bool",
          "name": "_guess",
          "type": "bool"
        }
      ],
      "name": "flip",
      "outputs": [],
      "stateMutability": "payable",
      "type": "function"
    },
    {
      "inputs": [],
      "name": "owner",
      "outputs": [
        {
          "internalType": "address",
          "name": "",
          "type": "address"
        }
      ],
      "stateMutability": "view",
      "type": "function"
    },
    {
      "inputs": [],
      "name": "withdraw",
      "outputs": [],
      "stateMutability": "nonpayable",
      "type": "function"
    },
    {
      "stateMutability": "payable",
      "type": "receive"
    }
  ],
  "bytecode": "0x608060405234801561001057600080fd5b50336000806101000a81548173ffffffffffffffffffffffffffffffffffffffff021916908373ffffffffffffffffffffffffffffffffffffffff1602179055506105f6806100606000396000f3fe6080604052600436106100385760003560e01c80631d263f67146100445780633ccfd60b146100605780638da5cb5b146100775761003f565b3661003f57005b600080fd5b61005e60048036038101906100599190610306565b6100a2565b005b34801561006c57600080fd5b506100756101ae565b005b34801561008357600080fd5b5061008c6102a5565b6040516100999190610374565b60405180910390f35b600034116100e5576040517f08c379a00000000000000000000000000000000000000000000000000000000081526004016100dc90610412565b60405180910390fd5b6000806002426100f5919061046b565b1490508115153373ffffffffffffffffffffffffffffffffffffffff167f59a08f6137052b94e704a9613c90dac949bffb1168fde5d465fcbf386d8cdb8e83346040516101439291906104ba565b60405180910390a3801515821515036101aa573373ffffffffffffffffffffffffffffffffffffffff166108fc60023461017d9190610512565b9081150290604051600060405180830381858888f193505050501580156101a8573d6000803e3d6000fd5b505b5050565b60008054906101000a900473ffffffffffffffffffffffffffffffffffffffff1673ffffffffffffffffffffffffffffffffffffffff163373ffffffffffffffffffffffffffffffffffffffff161461023c576040517f08c379a0000000000000000000000000000000000000000000000000000000008152600401610233906105a0565b60405180910390fd5b60008054906101000a900473ffffffffffffffffffffffffffffffffffffffff1673ffffffffffffffffffffffffffffffffffffffff166108fc479081150290604051600060405180830381858888f193505050501580156102a2573d6000803e3d6000fd5b50565b60008054906101000a900473ffffffffffffffffffffffffffffffffffffffff1681565b600080fd5b60008115159050919050565b6102e3816102ce565b81146102ee57600080fd5b50565b600081359050610300816102da565b92915050565b60006020828403121561031c5761031b6102c9565b5b600061032a848285016102f1565b91505092915050565b600073ffffffffffffffffffffffffffffffffffffffff82169050919050565b600061035e82610333565b9050919050565b61036e81610353565b82525050565b60006020820190506103896000830184610365565b92915050565b600082825260208201905092915050565b7f42657420616d6f756e74206d7573742062652067726561746572207468616e2060008201527f7a65726f00000000000000000000000000000000000000000000000000000000602082015250565b60006103fc60248361038f565b9150610407826103a0565b604082019050919050565b6000602082019050818103600083015261042b816103ef565b9050919050565b6000819050919050565b7f4e487b7100000000000000000000000000000000000000000000000000000000600052601260045260246000fd5b600061047682610432565b915061048183610432565b9250826104915761049061043c565b5b828206905092915050565b6104a5816102ce565b82525050565b6104b481610432565b82525050565b60006040820190506104cf600083018561049c565b6104dc60208301846104ab565b9392505050565b7f4e487b7100000000000000000000000000000000000000000000000000000000600052601160045260246000fd5b600061051d82610432565b915061052883610432565b925082820261053681610432565b9150828204841483151761054d5761054c6104e3565b5b5092915050565b7f4f6e6c7920746865206f776e65722063616e2077697468647261770000000000600082015250565b600061058a601b8361038f565b915061059582610554565b602082019050919050565b600060208201905081810360008301526105b98161057d565b905091905056fea264697066735822122086bb3f14be11f21ec18cd72034b6194e0484c3e01b4763c1c3f1f3b0a77c1f8864736f6c63430008180033",
  "linkReferences": {},
  "deployedLinkReferences": {}
}